:020000040801F1
:1000000000060020B912010891F70908EDF6090869
:1000100059F70908EDF6090825F70908BB12010888
:10002000BB120108BB120108BB12010871BE0C080B
:10003000BB120108BB120108BB120108BB12010868
:10004000BB120108BB120108BB120108BB12010858
:10005000BB120108BB120108EDC90C0819CA0C0833
:1000600045CA0C0871CA0C089DCA0C08E16F0C083F
:1000700009700C0835700C0861700C088D700C0844
:10008000B5700C08E1700C08956E0C08BB120108E5
:10009000BB120108BB120108BB120108C9CA0C0837
:1000A000897F0C08BB120108BB120108BB120108B2
:1000B000BB120108BB120108BB12010821760C0813
:1000C000BD770C08BB120108BB120108BB12010866
:1000D000BB1201080D880C0821880C0835880C0813
:1000E00031CB0C08BB120108BB120108BB1201087E
:1000F000BB120108BB120108BB1201080D710C08EC
:10010000BB120108BB12010821D10C08BB12010867
:1001100049880C085D880C08BB120108BB12010855
:1001200039710C0861710C088D710C08B9710C08DB
:10013000E5710C08BB120108BB120108BB120108D3
:10014000BB120108BB120108BB120108A9C50C08AB
:100150000D720C0839720C0865720C0871880C0855
:10016000BB120108BB120108BB120108BB12010837
:10017000BB120108BB120108BB120108BB12010827
:10018000BB120108BB120108BB120108BB12010817
:10019000BB120108BB120108BB120108BB12010807
:1001A000BB120108BB120108BB120108BB120108F7
:1001B000BB120108BB120108BB120108BB120108E7
:1001C000BB120108BB120108BB120108BB120108D7
:1001D000BB120108BB120108BB120108BB120108C7
:1001E00025330108556A0108D1FC010869CA0208D3
:1001F00075350408A9DE0508D1E10508291C0608A3
:10020000717F060821870608758A06086D100708A1
:10021000EDB8070819DC0708E1E7070895C60908E3
:10022000BDCB0908A1ED0908C9B50A085D860B0810
:10023000EDE60B0871F10B0829210C0875260C0856
:1002400081F0004102E000BF83F0004330B54FEA87
:1002500041044FEA430594EA050F08BF90EA020FF4
:100260001FBF54EA000C55EA020C7FEA645C7FEA87
:10027000655C00F0E2804FEA5454D4EB5555B8BFAA
:100280006D420CDD2C4480EA020281EA030382EA1B
:10029000000083EA010180EA020281EA0303362DAD
:1002A00088BF30BD11F0004F4FEA01314FF4801C80
:1002B0004CEA113102D0404261EB410113F0004F92
:1002C0004FEA03334CEA133302D0524263EB430349
:1002D00094EA050F00F0A780A4F10104D5F1200EE7
:1002E0000DDB02FA0EFC22FA05F2801841F1000142
:1002F00003FA0EF2801843FA05F359410EE0A5F116
:1003000020050EF1200E012A03FA0EFC28BF4CF046
:10031000020C43FA05F3C01851EBE37101F00045FC
:1003200007D54FF0000EDCF1000C7EEB00006EEB09
:100330000101B1F5801F1BD3B1F5001F0CD3490893
:100340005FEA30004FEA3C0C04F101044FEA4452EA
:1003500012F5800F80F09A80BCF1004F08BF5FEA71
:10036000500C50F1000041EB045141EA050130BD51
:100370005FEA4C0C404141EB0101013C28BFB1F563
:10038000801FE9D291F0000F04BF01460020B1FAAE
:1003900081F308BF2033A3F10B03B3F120020CDA81
:1003A0000C3208DD02F1140CC2F10C0201FA0CF05F
:1003B00021FA02F10CE002F11402D8BFC2F1200CC4
:1003C00001FA02F120FA0CFCDCBF41EA0C0190407A
:1003D000E41AA2BF01EB0451294330BD6FEA0404C3
:1003E0001F3C1CDA0C340EDC04F11404C4F12002AE
:1003F00020FA04F001FA02F340EA030021FA04F3C0
:1004000045EA030130BDC4F10C04C4F1200220FA16
:1004100002F001FA04F340EA0300294630BD21FA54
:1004200004F0294630BD94F0000F83F4801306BF1A
:1004300081F480110134013D4EE77FEA645C18BF0E
:100440007FEA655C29D094EA050F08BF90EA020FA5
:1004500005D054EA000C04BF1946104630BD91EA9D
:10046000030F1EBF0021002030BD5FEA545C05D1A0
:100470004000494128BF41F0004130BD14F58004DF
:100480003CBF01F5801130BD01F0004545F0FE4153
:1004900041F470014FF0000030BD7FEA645C1ABF88
:1004A000194610467FEA655C1CBF0B46024650EABF
:1004B000013406BF52EA033591EA030F41F40021EB
:1004C00030BD00BF90F0000F04BF0021704730B571
:1004D0004FF4806404F132044FF000054FF0000146
:1004E00050E700BF90F0000F04BF0021704730B507
:1004F0004FF4806404F1320410F0004548BF4042DC
:100500004FF000013EE700BF42004FEAE2014FEA30
:1005100031014FEA02701FBF12F07F4393F07F4F0B
:1005200081F06051704732F07F4208BF704793F00E
:100530007F4F04BF41F40021704730B54FF4607421
:1005400001F0004521F000411CE700BF50EA010224
:1005500008BF704730B54FF000050AE050EA0102CD
:1005600008BF704730B511F0004502D5404261EB3D
:1005700041014FF4806404F132045FEA915C3FF47E
:10058000D8AE4FF003025FEADC0C18BF03325FEA1B
:10059000DC0C18BF033202EBDC02C2F1200300FACC
:1005A00003FC20FA02F001FA03FE40EA0E0021FAF1
:1005B00002F11444BDE600BF70B54FF0FF0C4CF4DF
:1005C000E06C1CEA11541DBF1CEA135594EA0C0F91
:1005D00095EA0C0F00F0DEF82C4481EA030621EACC
:1005E0004C5123EA4C5350EA013518BF52EA033507
:1005F00041F4801143F4801338D0A0FB02CE4FF0B9
:100600000005E1FB02E506F00042E0FB03E54FF0E8
:100610000006E1FB03569CF0000F18BF4EF0010EE0
:10062000A4F1FF04B6F5007F64F5407404D25FEADC
:100630004E0E6D4146EB060642EAC62141EA55518F
:100640004FEAC52040EA5E504FEACE2EB4F1FD0CD1
:1006500088BFBCF5E06F1ED8BEF1004F08BF5FEA4F
:10066000500E50F1000041EB045170BD06F0004601
:1006700046EA010140EA020081EA0301B4EB5C04AE
:10068000C2BFD4EB0C0541EA045170BD41F48011A6
:100690004FF0000E013C00F3AB8014F1360FDEBFCB
:1006A000002001F0004170BDC4F10004203C35DAA7
:1006B0000C341BDC04F11404C4F1200500FA05F32A
:1006C00020FA04F001FA05F240EA020001F00042CB
:1006D00021F0004110EBD37021FA04F642EB060141
:1006E0005EEA430E08BF20EAD37070BDC4F10C046B
:1006F000C4F1200500FA04F320FA05F001FA04F22F
:1007000040EA020001F0004110EBD37041F100011A
:100710005EEA430E08BF20EAD37070BDC4F1200525
:1007200000FA05F24EEA020E20FA04F301FA05F28D
:1007300043EA020321FA04F001F0004121FA04F235
:1007400020EA020000EBD3705EEA430E08BF20EA05
:10075000D37070BD94F0000F0FD101F0004640003F
:1007600041EB010111F4801F08BF013CF7D041EAC1
:10077000060195F0000F18BF704703F000465200C5
:1007800043EB030313F4801F08BF013DF7D043EA96
:100790000603704794EA0C0F0CEA135518BF95EA4C
:1007A0000C0F0CD050EA410618BF52EA4306D1D1D3
:1007B00081EA030101F000414FF0000070BD50EAF2
:1007C000410606BF1046194652EA430619D094EA7C
:1007D0000C0F02D150EA013613D195EA0C0F05D166
:1007E00052EA03361CBF104619460AD181EA0301BA
:1007F00001F0004141F0FE4141F470014FF0000072
:1008000070BD41F0FE4141F4780170BD70B54FF00C
:10081000FF0C4CF4E06C1CEA11541DBF1CEA13558C
:1008200094EA0C0F95EA0C0F00F0A7F8A4EB05046E
:1008300081EA030E52EA03354FEA013100F0888065
:100840004FEA03334FF0805545EA131343EA12632E
:100850004FEA022245EA111545EA10654FEA0026E3
:100860000EF000419D4208BF964244F1FD0404F59C
:10087000407402D25B084FEA3202B61A65EB0305F8
:100880005B084FEA32024FF480104FF4002CB6EBB5
:10089000020E75EB030E22BFB61A754640EA0C0035
:1008A0005B084FEA3202B6EB020E75EB030E22BF75
:1008B000B61A754640EA5C005B084FEA3202B6EBB6
:1008C000020E75EB030E22BFB61A754640EA9C0075
:1008D0005B084FEA3202B6EB020E75EB030E22BF45
:1008E000B61A754640EADC0055EA060E18D04FEA03
:1008F000051545EA16754FEA06164FEAC30343EAA3
:1009000052734FEAC2025FEA1C1CC0D111F4801F6F
:100910000BD141EA00014FF000004FF0004CB6E768
:1009200011F4801F04BF01430020B4F1FD0C88BF07
:10093000BCF5E06F3FF6AFAEB5EB030C04BFB6EB12
:10094000020C5FEA500C50F1000041EB045170BD05
:100950000EF0004E4EEA113114EB5C04C2BFD4EB32
:100960000C0541EA045170BD41F480114FF0000EB6
:10097000013C90E645EA060E8DE60CEA135594EA32
:100980000C0F08BF95EA0C0F3FF43BAF94EA0C0F35
:100990000AD150EA01347FF434AF95EA0C0F7FF4AA
:1009A00025AF104619462CE795EA0C0F06D152EAFE
:1009B00003353FF4FDAE1046194622E750EA4106E2
:1009C00018BF52EA43067FF4C5AE50EA41047FF4F3
:1009D0000DAF52EA43057FF4EBAE12E74FF0FF3C58
:1009E00006E000BF4FF0010C02E000BF4FF0010C29
:1009F0004DF804CD4FEA410C7FEA6C5C4FEA430CA2
:100A000018BF7FEA6C5C1BD001B050EA410C0CBFF0
:100A100052EA430C91EA030F02BF90EA020F002052
:100A2000704710F1000F91EA030F58BF994208BFB9
:100A300090422CBFD8176FEAE37040F00100704776
:100A40004FEA410C7FEA6C5C02D150EA013C07D1CD
:100A50004FEA430C7FEA6C5CD6D152EA033CD3D018
:100A60005DF8040B704700BF8446104662468C4612
:100A70001946634600E000BF01B5FFF7B7FF002845
:100A800048BF10F1000F01BD4DF808EDFFF7F4FF6E
:100A90000CBF012000205DF808FB00BF4DF808EDF9
:100AA000FFF7EAFF34BF012000205DF808FB00BF1C
:100AB0004DF808EDFFF7E0FF94BF012000205DF83E
:100AC00008FB00BF4DF808EDFFF7CEFF94BF0120F3
:100AD00000205DF808FB00BF4DF808EDFFF7C4FFEC
:100AE00034BF012000205DF808FB00BF4FEA410C35
:100AF0007FEA6C5C02D150EA013C0AD14FEA430C18
:100B00007FEA6C5C02D152EA033C02D14FF0000054
:100B100070474FF0010070474FEA410212F5001292
:100B200015D211D56FF47873B3EB625212D94FEA34
:100B3000C12343F0004343EA505311F0004F23FA1E
:100B400002F018BF404270474FF00000704750EA73
:100B5000013005D111F0004008BF6FF00040704730
:100B60004FF00000704700BF4A0011D212F500128A
:100B700011D20DD56FF47873B3EB62520ED44FEAF5
:100B8000C12343F0004343EA505323FA02F0704775
:100B90004FF00000704750EA013002D14FF0FF30B3
:100BA00070474FF0000070474FEA4102B2F1E04356
:100BB00024BFB3F5001CDCF1FE5C0DD901F0004C44
:100BC0004FEAC0024CEA5070B2F1004F40EB830094
:100BD00008BF20F00100704711F0804F21D113F1C0
:100BE0003872BCBF01F00040704741F480114FEAF9
:100BF0005252C2F11802C2F1200C10FA0CF320FA82
:100C000002F018BF40F001004FEAC1234FEAD3239E
:100C100003FA0CFC40EA0C0023FA02F34FEA430308
:100C2000CCE77FEA625307D150EA01331EBF4FF091
:100C3000FE4040F44000704701F0004040F0FE40AC
:100C400040F40000704700BF80F0004002E000BFA9
:100C500081F0004142001FBF5FEA410392EA030FA7
:100C60007FEA226C7FEA236C6AD04FEA1262D2EBF1
:100C70001363C1BFD218414048404140B8BF5B42F6
:100C8000192B88BF704710F0004F40F4000020F08F
:100C90007F4018BF404211F0004F41F4000121F0A5
:100CA0007F4118BF494292EA030F3FD0A2F10102EF
:100CB00041FA03FC10EB0C00C3F1200301FA03F12D
:100CC00000F0004302D5494260EB4000B0F5000F50
:100CD00013D3B0F1807F06D340084FEA310102F10F
:100CE0000102FE2A51D2B1F1004F40EBC25008BFC1
:100CF00020F0010040EA03007047490040EB00008B
:100D0000013A28BFB0F5000FEDD2B0FA80FCACF18B
:100D1000080CB2EB0C0200FA0CF0AABF00EBC250B8
:100D200052421843BCBFD0401843704792F0000FA6
:100D300081F4000106BF80F400000132013BB5E7F9
:100D40004FEA41037FEA226C18BF7FEA236C21D06F
:100D500092EA030F04D092F0000F08BF08467047D4
:100D600090EA010F1CBF0020704712F07F4F04D1A2
:100D7000400028BF40F00040704712F100723CBFB5
:100D800000F50000704700F0004343F0FE4040F4DF
:100D9000000070477FEA226216BF08467FEA23639D
:100DA0000146420206BF5FEA412390EA010F40F488
:100DB000800070474FF0000304E000BF10F00043D4
:100DC00048BF40425FEA000C08BF704743F09643BB
:100DD00001464FF000001CE050EA010208BF7047D6
:100DE0004FF000030AE000BF50EA010208BF70475D
:100DF00011F0004302D5404261EB41015FEA010C72
:100E000002BF84460146002043F0B64308BFA3F169
:100E10008053A3F50003BCFA8CF2083AA3EBC2534B
:100E200010DB01FA02FC634400FA02FCC2F120026A
:100E3000BCF1004F20FA02F243EB020008BF20F0A1
:100E40000100704702F1200201FA02FCC2F1200207
:100E500050EA4C0021FA02F243EB020008BF20EAFC
:100E6000DC7070477BB972B90029BEBF00204FF01B
:100E7000004106E008BF00281CBF6FF000414FF0A2
:100E8000FF3000F017BAADF1080C6DE904CE00296F
:100E900009DB002B1ADB00F0A5F8DDF804E0DDE942
:100EA000022304B07047404261EB4101002B1BDB81
:100EB00000F098F8DDF804E0DDE9022304B04042D8
:100EC00061EB4101524263EB43037047524263EBD3
:100ED000430300F087F8DDF804E0DDE9022304B005
:100EE000404261EB41017047524263EB430300F023
:100EF00079F8DDF804E0DDE9022304B0524263EB47
:100F00004303704753B94AB9002908BF00281CBFE2
:100F10004FF0FF314FF0FF3000F0CCB9ADF1080CCD
:100F20006DE904CE00F05EF8DDF804E0DDE90223AF
:100F300004B07047430803F05533C01A830803F028
:100F4000333300F03330184400EB101000F00F3052
:100F500000EB002000EB0040000E704780EA1040DC
:100F600080EA102080EA101046F6961300F00F0079
:100F700043FA00F000F00100704700BF07EE900A4E
:100F8000F5EEC07AF1EE10FA01D400F00BB8F1EEF4
:100F9000677A08B517EE900A00F004F8404261EB5A
:100FA000410108BDD0B5FFF7AFFA0C4B0022064651
:100FB0000F46FFF701FBFFF7D7FD0446FFF782FA64
:100FC000074B0022FFF7F8FA02460B463046394637
:100FD000FFF73AF9FFF7C8FD2146D0BD0000F03D0C
:100FE0000000F0412DE9F047089D04468E46002B95
:100FF0004DD18A42944669D9B2FA82F252B101FACD
:1010000002F3C2F1200120FA01F10CFA02FC41EADC
:10101000030E94404FEA1C48210CBEFBF8F61FFA61
:101020008CF708FB16E341EA034306FB07F19942FC
:101030000AD91CEB030306F1FF3080F01F819942AF
:1010400040F21C81023E63445B1AA4B2B3FBF8F089
:1010500008FB103344EA034400FB07F7A7420AD910
:101060001CEB040400F1FF3380F00A81A74240F238
:1010700007816444023840EA0640E41B00261DB1A3
:10108000D4400023C5E900433146BDE8F0878B42D8
:1010900009D9002D00F0EF800026C5E90001304697
:1010A0003146BDE8F087B3FA83F6002E4AD18B4271
:1010B00002D3824200F2F980841A61EB030301201B
:1010C0009E46002DE0D0C5E9004EDDE702B9FFDE07
:1010D000B2FA82F2002A40F09280A1EB0C014FEAB2
:1010E0001C471FFA8CFE0126200CB1FBF7F307FB0F
:1010F000131140EA01410EFB03F0884208D91CEBB2
:10110000010103F1FF3802D2884200F2CB8043464E
:10111000091AA4B2B1FBF7F007FB101144EA01442D
:101120000EFB00FEA64508D91CEB040400F1FF31BC
:1011300002D2A64500F2BB800846A4EB0E0440EAAA
:1011400003409CE7C6F12007B34022FA07FC4CEAB3
:10115000030C20FA07F401FA06F31C43F9404FEAA6
:101160001C4900FA06F3B1FBF9F8200C1FFA8CFEBB
:1011700009FB181140EA014108FB0EF0884202FA0F
:1011800006F20BD91CEB010108F1FF3A80F08880D0
:10119000884240F28580A8F102086144091AA4B28D
:1011A000B1FBF9F009FB101144EA014100FB0EFE0E
:1011B0008E4508D91CEB010100F1FF346CD28E453D
:1011C0006AD90238614440EA0840A0FB0294A1EBCE
:1011D0000E01A142C846A64656D353D05DB1B3EB2B
:1011E000080261EB0E0101FA07F722FA06F3F1405B
:1011F0001F43C5E9007100263146BDE8F087C2F102
:101200002003D8400CFA02FC21FA03F39140014379
:101210004FEA1C471FFA8CFEB3FBF7F007FB1036B2
:101220000B0C43EA064300FB0EF69E4204FA02F45E
:1012300008D91CEB030300F1FF382FD29E422DD9B1
:10124000023863449B1B89B2B3FBF7F607FB1633E6
:1012500041EA034106FB0EF38B4208D91CEB010166
:1012600006F1FF3816D28B4214D9023E6144C91AE6
:1012700046EA004638E72E46284605E70646E3E6F6
:101280001846F8E64B45A9D2B9EB020864EB0C0E00
:101290000138A3E74646EAE7204694E74046D1E70F
:1012A000D0467BE7023B614432E7304609E76444BD
:1012B000023842E7704700BF02E000F000F8FEE7A6
:1012C00072B63A4880F30888394880F3098839486B
:1012D0004EF60851CEF20001086040F20000CCF258
:1012E00000004EF63471CEF200010860BFF34F8F5C
:1012F000BFF36F8F40F20000C0F2F0004EF688514D
:10130000CEF200010860BFF34F8FBFF36F8F4FF035
:101310000000E1EE100A4EF63C71CEF200010860CA
:10132000062080F31488BFF36F8FBAF021FEBAF065
:10133000FDFDB9F0BDFE4FF055301F491B4A9142EB
:101340003CBF41F8040BFAE71C49194A91423CBFE3
:1013500041F8040BFAE71A491A4A1B4B9A423EBF5E
:1013600051F8040B42F8040BF8E700201749184A1B
:1013700091423CBF41F8040BFAE7BAF0DBFDB9F04B
:10138000EBFE144C144DAC4203DA54F8041B8847AE
:10139000F9E701F0B7FF114C114DAC4203DA54F8F4
:1013A000041B8847F9E7BAF0C3BD0000000600201F
:1013B000002200200000010800000020000600209C
:1013C000585A0F0800220020142B0020182B002050
:1013D00000480120E0010108400201084002010824
:1013E000400201082DE9F04F2DED108AC1F80CD014
:1013F000C3689D46BDEC108ABDE8F08F002383F3DF
:1014000011882846A0470020B9F014FCFEE7B9F087
:10141000B5FA00DFFEE7000001F0FF01102A2BDB28
:1014200010F0070F08D010F8013B013A8B422DD085
:1014300010F0070F42B3F6D1F0B441EA012141EABE
:10144000014122F007047FF000070023F0E8025674
:10145000083C85EA010586EA010685FA47F5A3FA04
:1014600087F586FA47F6A5FA87F68EB9EED1F0BC75
:1014700001F0FF0102F0070232B110F8013B013A1E
:1014800083EA010313B1F8D1002070470138704797
:10149000002D06BF35460338073815F0010F07D178
:1014A000013015F4807F02BF013015F4C03F0130D8
:1014B000F0BC0138704700BF10F8012B11F8013B58
:1014C000012A28BF9A42F7D0D01A7047034613F872
:1014D000012B002AFBD1181A0138704738B50022B9
:1014E000002304460D46FFF7D9FA28B920462946BD
:1014F000BDE8384000F00AB8204605F1004100F090
:1015000005F8404261EB410138BD00BFD0B50C4B3E
:10151000002206460F46FFF74FF8FFF725FB04466B
:10152000FEF7D0FF074B0022FFF746F802460B46B6
:1015300030463946FEF788FEFFF716FB2146D0BD40
:101540000000F03D0000F0410120704713B58368B2
:10155000012B0A4601D05B0616D50C4B93F9661D8C
:1015600091B103F58051D1F8D447B3F9681DB4F9AE
:101570000630994208DD064B00934021054B81F06F
:1015800091FA002002B010BD0120FBE7203B0020B3
:10159000C2390D08B0390D082DE9F0418368012BDF
:1015A00090B004460D4602D0990640F1AE80584EE8
:1015B00096F9663DBBB106F58052B6F9683DD2F8A2
:1015C000D427B2F90A1003F10A02914203DD40F276
:1015D0008D32934207DC4F4B2A462021204681F072
:1015E00061FA00208EE096F9553D022B05D14A4B59
:1015F0002A462021204681F055FAB6F8283DA3F569
:101600007A739BB241F6583293420FD8434FD7F8C2
:10161000A83806F5596292ED007AD3ED097AB4EE56
:10162000E77AF1EE10FA03DD3D4BD5E73D4BD3E70A
:1016300006F6945292ED007AD3ED0A7AB4EEE77A88
:10164000F1EE10FAF0DCB6F9623D002B01DC364B0E
:10165000C2E796F8082F0D2A04D84FF42153D3403F
:10166000DA0708D4DFF8F080D8F8580C7CF0F0FCEA
:1016700018B92E4BB0E72E4BAEE72E480FF0FCFD0D
:10168000012806D1D7F8B0087AF0A0FA98B101285D
:101690001AD000212E2204A803AE0391BEF086FAD0
:1016A0002549D7F8AC083223324679F091FE00BBC9
:1016B000224B009602E0224B0093224B2A46202127
:1016C000204681F0EFF98CE798F8EC38DB070ED56F
:1016D0001D4819214DF01AF848B11B48D6F8406D45
:1016E00019214DF039F88642D3DD184BE4E7184B49
:1016F000E2E71849D7F8A8083223324678F01AF8FA
:101700000028D5D010B0BDE8F0810120FAE700BF75
:10171000203B0020CC390D08DF390D08205B00206C
:10172000173A0D08073A0D08313A0D08663A0D08C8
:10173000463A0D08B8740020D63A0D08DA3A0D087A
:10174000A13A0D087C3A0D0898370020C03A0D08E0
:10175000B13A0D08EC3A0D08204B002007B50448BB
:101760007BF0E0FD00F0010003B05DF804FB00BF7A
:10177000AC6300202DE9F043DFF878810446D8F807
:10178000340C036899B01B690D469847814616F0E2
:10179000EFFD002107462E220CA80B91BEF006FAA1
:1017A00032230BAA4946384616F0BAFA064648B91B
:1017B000444A0BAB2946204681F0BCFB304619B0A9
:1017C000BDE8F083A8F5737068F088FBB9F1000FED
:1017D0000BD0A8F5005013F041FE80B93A4A2946D3
:1017E000204681F0A7FB0026E8E710F0060FE5D0C1
:1017F000A8F5005013F032FE08B9344AEFE703A908
:10180000384616F01FF928B19DF80D305B0601D55A
:101810002F4AE4E7DFF8E080D8ED007AF5EEC07AF1
:10182000F1EE10FA4FF0000335DD089309930A93A7
:101830000DF1200907AB019305AA06AB04A9CDF869
:101840000090384616F004FC48462FF06DFBD8EDAA
:10185000007AB4EEE70AF1EE10FA01DB1D4ABEE7AA
:101860009DED057AF4EEC77AF1EE10FA01D81A4A26
:10187000B5E79DED047AF4EEC77AF1EE10FA01D8DF
:10188000164AACE79DED067AF4EEC77AF1EE10FA4F
:1018900001D8134AA3E707F52F71124805F096FA0D
:1018A000074608B1104A9AE710490E4805F08EFA2B
:1018B000002883D00E4A2946204681F03BFB3E4655
:1018C0007CE700BFF03A0D08F93A0D08103B0D080F
:1018D000363B0D08443B0D08593B0D086F3B0D0886
:1018E000853B0D08202B0020993B0D089C630020B0
:1018F000B63B0D08204B0020A448002008B5064B3D
:1019000093F84D3C9B0704D5044A81F013FB00205B
:1019100008BD0120FCE700BF204B0020D83B0D088C
:1019200070B5836813F0210F8EB005460E4603D1C3
:10193000012420460EB070BD82F0E8FA044600286B
:10194000F6D000212E2202A80191BEF02FF92046E8
:10195000322201A982F0A2FA04460028E8D1034A03
:1019600001AB3146284681F0E5FAE2E732960D08F0
:1019700070B50C4C0546D4F8340C03685B690E4610
:10198000984710B10124204670BDA4F5005013F013
:1019900077FD04460028F5D1034A3146284681F0F8
:1019A000C9FAF0E7204B0020E83B0D082DE9704D07
:1019B0003F4ED6F8583C93F875408FB082468B4620
:1019C00084B95DF02BFE20215EF0AEFDA8B15DF084
:1019D00025FE1F215EF0A8FD40B1364A594650460B
:1019E00081F0A8FA20460FB0BDE8708D5DF016FEBC
:1019F000A5215EF099FD0028EFD196F82A3C03F06E
:101A00001403142B01D12C4AE8E72C4B1D780DB19F
:101A10002B4AE3E75946504682F02CF8044600284A
:101A2000E0D02E22294602A80195BEF0BFF8D6F8D4
:101A3000580C036801AA1B6832219847044630B944
:101A4000204A01AB5946504681F074FACAE7DAF8E9
:101A500008303BB9DAF8003059465B6B504698477E
:101A60000446BFE759465046FFF796FD5946804663
:101A70005046FFF743FF08EA0000C4B259465046FB
:101A8000FFF74EFF594604405046FFF75FFD5946A9
:101A900004405046FFF76CFF59460440504681F021
:101AA000EFFA59460440504681F0FCFF044099E7A4
:101AB000204B0020FC3B0D08163C0D089C830020A9
:101AC0007AAC0D082E3C0D0808B5FFF76FFF054AEC
:101AD00092F8281C60F3041182F8281C024A9071C5
:101AE00008BD00BF204B00209D790020F7B50546BA
:101AF0000E4681F00BF8044658B3AB68012B01D0B9
:101B0000990726D514487BF00DFCC205C0F30723C6
:101B1000C0F300271DD49B071BD50F487BF010FC9A
:101B20000E4B03F50563D3ED007AF8EEE77A30EE5D
:101B3000670ADFED0B7AB0EEC00AB4EEE70AF1EE09
:101B400010FA06DD074B32460221284680F0AAFF34
:101B50003C46204603B0F0BDAC630020205B002073
:101B60000000C8423C3C0D08F8B504460F4681F021
:101B70008DF9A368012B054601D0DB060BD5204665
:101B8000FFF7ECFD064630B9044B3A4610212046DB
:101B900080F088FF35462846F8BD00BF503C0D0850
:101BA00013B50446019180F01DFF78B1A368019A36
:101BB000012B01D01B0609D5054B93F841312BB100
:101BC0002046044B802180F06DFF002002B010BD44
:101BD000205B0020643C0D0810B5094B0446D3F887
:101BE000B00879F0F3FF022804D02046BDE8104089
:101BF00080F0FABE03480FF03FFB0128F5D110BD7D
:101C0000205B0020B8740020F0B5114C85B0D4F8EA
:101C1000CC370093D4F8D0370193D4F8D43702935B
:101C20006A46D4F8D837039306460F4681F0B4FECF
:101C300039460546304681F0DFF894F8283C2840C4
:101C400060F3C303C3F3C00084F8283C05B0F0BDC3
:101C5000204B00202DE9F84306462748DFF8A890DE
:101C6000DFF8A8800F4668F039F90446D9F8340C3B
:101C700003681B699847054630B914F0060F03D175
:101C8000D9F8683C022B09D13946304680F062FF12
:101C9000054618B9002488F807400AE0394630465E
:101CA000FFF768FD04460028F4D02DB9012388F819
:101CB00007302046BDE8F883B368012B01D01B072D
:101CC000F4D50E481FF000FE0028EFD00C4B93F81F
:101CD000D823B02101FB023203F58053B2F8E6218C
:101CE000B3F9563D9A42E1DD064B3A4608213046AB
:101CF00080F0D8FECEE700BF54470020282C0020FB
:101D0000202B0020783C0D08204B00209D790020DE
:101D10002DE9F3410F46054616F02AFB804615F0E3
:101D200053FE044640B9504A0121284681F002F989
:101D3000204602B0BDE8F0814C4ED6F8340C036862
:101D400039469B699847044658B9D6F8340C03685D
:101D50009B6B9847464A03460121284681F0EAF8E2
:101D6000E6E7AB68002BE3D0012B01D0DA0623D5E0
:101D7000D8ED917A98ED900A20EE270ABBF0B2FCDC
:101D8000DFED3C7A3C4B20EE270AB3F9283DDFED2E
:101D90003B7A20EE270A07EE903AF8EEE77AB4EEA7
:101DA000E70AF1EE10FA07DD354B01221021284633
:101DB00080F078FE0024BBE7AB68012B01D05B0606
:101DC00028D5012F18D0D6F8D4372E48B3F90830CB
:101DD00000EE103AB8EEC00A00F04CFBB5EEC00AB7
:101DE000F1EE10FA24DD284B00930122274B40210D
:101DF000284680F057FEDDE7D6F8340C03681B68F0
:101E00009847042806D0D6F8340C03681B68984716
:101E10001428D8D11E4B1B68586D03681B6A98475D
:101E20000128014619D11B4A284681F083F8C1E7F1
:101E3000D6F8340C03685B69984730B1D6F8D437CC
:101E4000B3F90830002BE5DDCDE7D6F8340C036894
:101E50001B6898470B28DDD1F0E73946284602B0C9
:101E6000BDE8F04181F052BB883C0D08204B0020BA
:101E7000993C0D08E02E6542203B00200000C8423E
:101E8000AD3C0D08202B0020C2390D08B53C0D08D3
:101E900008780020C13C0D0870B505460E46FFF7D6
:101EA00069FC084B0446D87131462846FFF760FDAF
:101EB00031460028284608BF002481F05FFD2040FD
:101EC00070BD00BF9D7900202DE9F0414D4F3B785A
:101ED000002B40F095804C4DD5F8584C94F8754047
:101EE00001263E701CB13B702046BDE8F08181F0B8
:101EF0007FFE044630B9454A3870137843F0010339
:101F00001370F1E751F040FF314650F0BBFFA5F5EB
:101F1000005006F027FE3E4B1E710B2647F0D2FE06
:101F2000013E47F06DFE16F0FF06F7D1394800F08C
:101F300045FE16F01DFAD0F80422C5F8802C90F862
:101F4000CC32DA074BD415F081FF51F01DFF3C2154
:101F500051F0C8FC304B00221A6000212D482F4E52
:101F600000F0BAFE2B4813F079FA01462C487FF0B6
:101F700095F92C4B1B68586D036801211B68984725
:101F8000244812F0EBFD0121D5F8580C7DF04AF8F9
:101F900051F0FAFE8046D5F8340C03681B68984768
:101FA00096F8EC2C0146404651F030F9A6F58050E9
:101FB00006F0CAFD4DF050FD4DF0B2F800233B7025
:101FC0008DF01CFCB5F82A3C06F5005623F4087386
:101FD00043F02003C6F8BC08A5F82A3C84E79B0719
:101FE000BBD431460B4804F093FF0F487BF0A8F9AF
:101FF000DFED0E7A084B20EE270A83ED000AACE7EE
:10200000002471E7182B0020204B0020BC79002011
:102010009D790020202B002060570020203B0020CD
:102020001851002008780020AC6300200AD7233C18
:102030002DE9F043374DD5F8583C93F8753087B00B
:10204000002B64D052B1012908D195F9283C002B0E
:1020500004DB0024204607B0BDE8F08381F076FE63
:1020600004460028F5D016F083F907461EF01CF848
:102070008046384615F0D2F9D8B198F92430022BB1
:1020800017D100264FF00009F1B203AA384601919A
:10209000CDF80C90CDF81090CDF8149015F03AFDD5
:1020A000019918B103AA40461DF03CFC0136032EED
:1020B000EAD1194BD5F8340C984224D10AF08EFF9E
:1020C0001648012106F050FF1448012106F08AFE4F
:1020D0000021D5F8580C7CF0A5FF114830F0C4FF62
:1020E00051F052FE002150F0CDFE0E4B1B68586D92
:1020F000036800211B68984795F82A3C6FF3451345
:1021000085F82A3CA6E718460AF06CFFD8E70124B8
:10211000A0E700BF204B002058700020202B00209B
:10212000B86E002008780020014867F09FBF00BF0C
:102130005447002008B500F5005090F8283CC3F340
:1021400040128A420BD061F3451380F8283C31B12C
:1021500051F01AFEBDE808400F2151F0C3BB08BD85
:1021600070B500F500560546D6F8683C8B420C4623
:1021700012D0012911D0022916D059B951F004FE0C
:102180001B2151F0AFFB0D4A05F5285006211830F0
:1021900054F08CFDC6F8684C70BD51F0F5FD1A2165
:1021A00051F0A0FB064AEFE7012100F095FD51F048
:1021B000EBFD1D2151F096FB024AE5E71C3D0D08A1
:1021C000313D0D082C3D0D0810B500F500520C46B0
:1021D00092F84D3C03F00101A14209D064F30003E1
:1021E00082F84D3CDB0704D406F0C4F8024B9C7225
:1021F00010BD06F073FAF9E79D79002000F5005054
:1022000090F84D3C61F3410380F84D3C014B19734C
:10221000704700BF9D79002010B504465DF0FEF9BF
:1022200020215EF081F904F50053003893F82A2C40
:1022300018BF012060F3820283F82A2C10BD000031
:1022400010B504464DF008FC04F50052036FD2F8B7
:10225000582C04F540509360D0F8A8289363D0F828
:10226000AC28C2F8E431D0F8A8080368BDE81040F3
:102270005B6C184770B52DED028B00F500550446D8
:10228000D5F8583C93F87530002B71D095F9283C5F
:10229000002B6DDB00F5804393F8C432002B67D12F
:1022A000D5F8340C03685B699847002860D1324B3D
:1022B000D3F8340C03681B6898470B2858D004F5F2
:1022C00040569FED2E7AD6F8AC38D3ED8F7AF0EEEB
:1022D000E77AF4EEC77AF1EE10FA49D5D5F8580C42
:1022E0003C3054F0DBF80346DFED250A93ED000A9D
:1022F0009A20B7EE001A2AF06DFFB5EEC00AF1EE93
:1023000010FA35DD04F562500C307BF025F8DFED76
:102310001D7AB0EEC00AB4EEE70AF1EE10FA27D546
:10232000D6F8A80804F580540368D4ED917ADB6FE1
:10233000B8EEE78A984738EE400ADFED137AB0EE40
:10234000C00AB4EEE70AF1EE10FA11D5D4F848321B
:1023500040F2E63203F2F313934209D8BDEC028B4C
:10236000D5F8580C9FED090ABDE870407BF0BABE65
:10237000BDEC028B70BD00BF204B0020000000347C
:1023800000000000000070420000FA430AD7233C1E
:1023900008B500F50050D0F8580C03689B689847C2
:1023A000F6EE007A20EE270AB5EEC00AF1EE10FA3A
:1023B00048BF9FED010A08BD0000000038B52DEDB3
:1023C000028B00F540550446D5F8A838DFED110A18
:1023D00093ED2B0A04F500546F20B7EE001A2AF093
:1023E000F9FED4F8580CD5F8AC5803689B68B0EEE9
:1023F000408A984738EE400ABDEC028BDFED067A42
:1024000005F59875284620EE270ABDE838406DF09E
:10241000C7BE00BF0000000000007A4400F58050F5
:10242000D0EDA45AD2ED007AD0EDA76A91ED006A02
:1024300026EEE77A67EEA57AA6EE257AE6EE267A0C
:1024400081ED007AC2ED007A7047000000F500537C
:10245000B3F9C83643B900F58050B0F9620D0028D1
:10246000B8BF404280B2704783EAE370A0EBE370EC
:10247000F8E7000030B52DED028B00F5005383B076
:1024800093F84D1C11F00101044605D09FED2C0A74
:1024900003B0BDEC028B30BD93F8293C01915B0782
:1024A000F4D5DFED288ADFED260AB0EE681A4C205D
:1024B0002AF090FE04F580550199B5F96A0D4FF4A4
:1024C000C872B0EE408A2AF0C3FEA5F86A0D204615
:1024D00012F068FCB5F96A3D07EE900AB8EEE77AAB
:1024E00007EE903AF8EEE77A77EE676AB4EEE68A9E
:1024F000F1EE10FA0DD52046FFF7A8FF07EE900A7F
:1025000038EE668AB8EEE70A20EE088A88EE260AD8
:10251000BEE777EE877AB4EEE78AF1EE10FAB5DD22
:10252000B5F9623D00EE103A38EE678AB8EEC00A9F
:1025300078EEE77A20EE088A88EE270AA8E700BF3F
:102540000000000000007A4400207047002070471F
:102550007047000000F50050D0F8340C03681B6889
:1025600018470000034808603421117008221A60DF
:10257000704700BFF0420D0810B500F500500C4642
:10258000D0F8340C03685B6D984707EE900A9FED16
:10259000057AF8EE677A012067EE877AC4ED007A53
:1025A00010BD00BF0AD7233C10B500F500500C4603
:1025B000D0F8340C03681B6D984707EE900A9FED26
:1025C000057AF8EEE77A012067EE877AC4ED007AA3
:1025D00010BD00BF0AD7233C10B500F500500C46D3
:1025E000D0F8340C03689B6D9847DFED047A20EE39
:1025F000270A012084ED000A10BD00BF0AD7233C42
:102600006EF09EBB81F066BC13F0C0BE65F0E2B90F
:102610005FF00EB84DF06CB928F03EBD50F09CBD97
:1026200019F0C8BD5FF09CBB5CF088BC5AF0A4B93F
:1026300012F052B812F062BD06F050BE13F042BE66
:1026400005F0EEBE05F03CBC05F04EBB47F0D8BA35
:1026500018F0AEBA62F00EBF0FF082BDFFF70ABEEF
:1026600012F076B97FF02EBA12F0FCBB03F0BABBC1
:1026700012F0F8B812F076B85CF050BF21F0F0B864
:1026800002F0D8BD5FF07CBB06F0E0BD04F062BC98
:1026900006F026BF05F0CCBB06F05CBB11F0ACBF6A
:1026A000FFF7CEBD28F092BF10B500F5405086B0C0
:1026B000D0F8A8080C4600F17C0170302EF00AF822
:1026C00006AA8DED030ACDED040A8DED051A12E977
:1026D00007006B4683E8070084E80700012006B086
:1026E00010BD000006F078B80AF016B80AF0AEB9CE
:1026F0000AF042B938B5194B036000F5005304469F
:10270000D3F8BC0B164AC3F8182A08B11AF0BEF960
:10271000144B236004F5805393F8D42A42B9D3F8BC
:10272000D05A2DB1284627F04DFB28461AF0A8F9BB
:1027300004F6647073F024FE04F628705FF0B2F9BA
:10274000094BC4F8F03804F6D41053F0BFFB04F57D
:10275000156053F0BBFB204638BD00BF10470D0885
:1027600024560E08A4350E08F8FE0D0838B5384B6F
:10277000044640F8043B61F049FB04F1100019F0F5
:10278000B5F804F160004CF065FE04F584701EF0AD
:10279000BBFF04F5906017F0E3FD04F2AC501CF0B1
:1027A000E3FE04F50F6028F02DFB04F678404BF0B3
:1027B0007DFE04F628705FF05DF904F6647073F036
:1027C000CBFD04F578604DF0DFF904F6D47062F0CB
:1027D000F7FC00251F4B84F8E45F04F6E47204F66E
:1027E000F4701A6047F09EF804F5825029460830CC
:1027F00014F0B2FA04F5AD506DF0E6FD04F5CB50DF
:10280000043071F081F804F5D3501C3073F046F9B0
:1028100004F5D75013F0A8FF04F5E150143067F029
:10282000C9FA04F5805304F5E85083F8EC5C0A4DCE
:10283000043074F035F92B6813B108488CF0ACFF04
:10284000204607494AF0B0FD2C60204638BD00BF45
:10285000A4350E08EC880020807A0020403D0D0849
:10286000FC340E0810B512F027FA5CF0D7FE0368AE
:10287000BDE810405B681847FFF7F4BF10B5044689
:1028800006F0C8FA204612F013FE204604F010F9B4
:102890002046BDE8104004F077BA0000FFF7EEBF15
:1028A00070B500F5325504350446284618F03AFF55
:1028B0001DF0FAFB90F9213093B390F840337BB3CD
:1028C00004F5005304F2AC56D3F8580C3C3053F0E6
:1028D000E5FD0346DFED130A93ED000A9A20B7EEFB
:1028E000001A2AF077FC94F9E035012B284608BF3E
:1028F00086ED0E0A002118F013FDDFED0B7A04F6C9
:10290000040494ED287A20EE270ADFED087AA7EE7A
:10291000270A304684ED280ABDE870401DF08EB8C5
:1029200070BD00BF00000000CDCCCC3D6666663FA8
:10293000FFF7B6BF10B50121044612F0F5FD60B1F6
:10294000114BD3F8340C03689B6A984728B920468A
:1029500002F04EFB204602F083FB4FF400112046AC
:1029600012F0E2FD18B129F0BBFB28F0BBF94FF4DF
:102970008021204612F0D8FD28B129F0B1FBBDE836
:10298000104028F0BDB810BD204B0020FFF7D2BF8B
:1029900038B50221044612F0C7FD70B1012120466E
:1029A00012F0C2FD48B94C4BD3F8340C03689B6A53
:1029B000984710B9204602F01BFB0121204612F077
:1029C000B3FD10B9204602F04BFB0121204612F066
:1029D000ABFD10B9204602F09DFB4FF400312046BC
:1029E00012F0A2FD30B104F50053D3F8580C03687F
:1029F000DB6B98474021204612F096FD58B104F554
:102A00001F551C3528464FF071FB94F9283F13B130
:102A100028464FF0CBFC4FF48061204612F084FD35
:102A200020B104F51F501C304FF0F8FB2021204648
:102A300012F07AFD68B104F50055D5F8340C03683E
:102A40001B69984750B304F54053D3F8AC0877F0AE
:102A500061FD8021204612F067FD60B329F040FB44
:102A600028F072F81021204612F05EFD48B104F5FE
:102A70004053D3F8A80874F051FD04F5F2507FF0EC
:102A800093F84FF6FF71204612F04EFD10B304F597
:102A90001A502C30BDE8384081F02ABA20460DF09B
:102AA000F7F90028CFD1D5F8340C03685B69984753
:102AB0000028C8D0CDE74FF48021204612F034FD25
:102AC0000028CBD14FF40021204612F02DFD002824
:102AD000C4D1C7E738BD00BF204B0020FFF758BF67
:102AE00010B50121044612F01FFD10B1204602F07E
:102AF00011FB8021204612F017FD58B14FF48021C0
:102B0000204612F011FD28B929F0EAFABDE810407C
:102B100027F0F6BF10BD0000FFF7E2BF10B5044676
:102B200005F02AFF204605F08FFD204605F06AFFDC
:102B3000204606F083F8204613F04CFC2046BDE802
:102B4000104003F091BF0000FFF7E8BF70B54FF6EB
:102B5000FF71044612F0E8FC04F5005528B1D5F8E1
:102B6000282C0721204602F007FBD5F8583C93F8A3
:102B700075308BB92046FFF74FFBD5F8580C04F59C
:102B80008053026893F8081F966993F87E2DB0472A
:102B9000D5F8580C7BF06AFA5DF0FCFE204613F085
:102BA0000BFC95F8283C034ADB43C3F3C013537175
:102BB00070BD00BF9D790020FFF7C8BF2DE9F0412F
:102BC00000F5005400F5805604F66C48D6F89032B3
:102BD000C8F8003004F54767D6F89C323B600546DC
:102BE000D6F84C0200F58C4050302AF0C7FA04F6B3
:102BF0007843C4F8740CD8F800201A6004F67C44BA
:102C00003B6823604FF6FF71284612F08DFC38B107
:102C1000D6F84C2228460921BDE8F04102F082BADC
:102C2000BDE8F08110B500F50053D3F8681C002909
:102C300051D093F8292CD4074DD56FF3000283F8B7
:102C4000292CD3F8CC27D3F8D0470129B2F90810A2
:102C500007EE101AB4F9081006EE901A0BBF03F62F
:102C60006C4103F67841D1ED007AD1ED007A0CBFCA
:102C700003F5476103F67C41D1ED005A0CBFF8EE35
:102C8000E66AF8EEE66AB8EEC77A25EEE66A00F57F
:102C90008050A7EE276A67EEA67AD0EDA46AE7EE29
:102CA000257A90EDA77A27EE877AA6EE267ABDEEF2
:102CB000C77A17EE101A118190EDA47AD3F8D037A5
:102CC00067EE877A90EDA77AE6EE477AFDEEE77A2F
:102CD00017EE902A1A8110BD38B505462DED028BEE
:102CE00000F5005471B1284611F054FED4F8743C3C
:102CF0001B1A03F2F31340F2E63293420CD8BDECF8
:102D0000028B38BDD4F8683C022BF8D111F024FEB8
:102D1000B0F57A7FE7D2F2E7C4F8740C00F58C4086
:102D20005030642390FBF3F308EE103ADFED0B7A9A
:102D3000B8EEC88A28EE278AB0EE480ABAF01EFB21
:102D400004F6784383ED000AB0EE480ABAF066FC58
:102D500004F67C4484ED000AD1E700BF35FA8E3CCE
:102D600000F582500121083014F01ABDFFF7F8BFBA
:102D700010B5044612F01CF81021204612F0D4FBC6
:102D800070B1204602F082F84FF40011204612F094
:102D9000CBFB28B929F0A4F9BDE8104027F0A2BF69
:102DA00010BD0000FFF7E4BF70B50446254606F0ED
:102DB000D1FA214B45F83C3B204B2465C4E915343E
:102DC0001F4BC4E917341F4B636604F1780019F0F8
:102DD0000FFB04F1940019F00BFB04F1B00019F0A3
:102DE00007FB4FF6FF76184BC4F8C430A4F8C86050
:102DF00004F1CC0019F0FCFA144B15491D6028466B
:102E00004AF0D2FAA4F87060A4F88C6004F59A70C5
:102E100019F0EEFA04F5A87019F0EAFA04F5B670A4
:102E200019F0E6FA002384F88031C4F8A4310123B4
:102E300084F8A831204670BD889B0D08E92601085A
:102E4000ED260108F12601080000FFFF707900203F
:102E5000CC0B0E0810B5044606F07CFA0A4B236032
:102E60000123A38704F1400019F0C2FA04F15000D5
:102E700019F0BEFA04F1600019F0BAFA04F170001A
:102E800019F0B6FA204610BD0CA40D082DE9F04348
:102E90002DED028B044687B0FFF768FC8D4B236055
:102EA00004F5ED5002F03EFB04F5EB5104F51F5024
:102EB00018311C304FF01AFF04F5005504F5EB53A0
:102EC0000C33C5F8E43804F52350062385F8E838B8
:102ED000383053F065FA04F524501C3053F060FA92
:102EE00004F5265604F52550243604305EF0EEF93C
:102EF00030467FF083FD784B7849C5F8A439301D02
:102F0000B7EE000A03904AF04FFE039849F00AFD1D
:102F100010B9012385F8A839714BC5F8183A04F5A2
:102F2000285604F52A5738361C373046143657F0E1
:102F3000DBFDB742F9D10723C5F8C03B0023A5F854
:102F4000C43B4FF4CB7019F09FFDC5F8BC0B04F5E2
:102F50002F50083089F060FA04F530500C3089F0B9
:102F60005BFA604A13681BB904F5285318331360E1
:102F700004F594475C4BC5F8183A243704F53050F3
:102F8000C5F8347C39307DF007FCB7EE008A05F6D1
:102F90006C4383ED008A554B059305F67845544BF9
:102FA00085ED008A0494009304F5325006AB13E9D2
:102FB0000C004FF40071043018F070F804F545501F
:102FC000043082F03DF804F56150B0EE480A143048
:102FD00053F076FA04F56150B0EE480A2C3053F005
:102FE000E7F904F5615004F540553C3019F000FA5A
:102FF00005F68C0300261E605E609E6005F6980351
:1030000004F563581E605E609E6004F582530833C9
:10301000C5F8A438002385F8C13808F1280019F054
:10302000E7F904F56450103019F0E2F908F10808E6
:103030004FF400432F49C5F8343940464AF0B4F9FB
:103040002D4B04F564503830C3F800805EF072FEFA
:1030500004F56650243068F085FE04F567501C3096
:103060004AF05AFF04F56758244BC5F8DC3908F1DB
:103070003008FF2385F8003A85F8083A2049404691
:103080004AF092F91F4B1D6815B11F488CF084FB64
:1030900004F568501030C3F800804DF0D3FE1B4B90
:1030A0001B48186004F5854234322B464FF0180C4B
:1030B0009DB20CFB05F10133415C0029F8D1154BA1
:1030C0001D80154BD3F80080B8F1000F2AD01348AB
:1030D000DCE700BF10470D08D83C0D08187A002027
:1030E00024560E086083002074470D08E526010869
:1030F00000470D08C8BB0D0850790020183D0D0889
:10310000407D0E0874890020543D0D083C7A002053
:10311000E0880D083A7A0020F4790020753D0D080A
:10312000CDCC4C3D04F585401FED030A1A604830B4
:1031300053F03EF904F5854004F58045603006F013
:1031400009F95E4BC5F8E03204F58640203006F000
:1031500001F904F58A495A4BC5F8203304F5864035
:1031600009F138095C30FFF71FFE484606F0F2F817
:10317000544BC5F8383509F13C0087F02DFA524B15
:10318000C5F8743504F58D40603006F0E3F84F4B18
:10319000C5F8E03604F58E40243006F0DBF84C4BE1
:1031A000C5F8243704F58E40A5F86087643006F032
:1031B000D1F8484BC5F8643704F58F40203006F04D
:1031C000C9F8454BC5F8A03705F2DC7304F58F400C
:1031D0001E605E609E60743006F0BCF83F4BC5F820
:1031E000308804F59040C5F8F4373C3006F0B2F86A
:1031F0003B4BC5F83C38C5F8788804F5914006F09B
:10320000A9F8384BC5F8803804F59140483006F0ED
:10321000A1F8354BC5F8C83804F59240043006F0E3
:1032200099F8324BC5F8043905F67C1304F5934040
:103230001E605E601830FFF70DFE384606F08AF813
:103240002B4BC5F8243A04F5944060300FF0CAF8CF
:1032500004F5964006F07EF8264BC5F8003B04F5D1
:103260009640A5F83C8B503006F074F8224BC5F818
:103270008C8B04F59740C5F8503B1430FFF7EAFDFE
:103280001E4BC5F8943B04F59840012385F81D3C7E
:10329000243010F0CDF904F599401C3006F05AF8AE
:1032A000174BC5F89C3C05F6DC4520462E606E6049
:1032B00007B0BDEC028BBDE8F08300BF28980D0875
:1032C000C4980D08249C0D08AC9C0D08509D0D0859
:1032D000E89D0D08809E0D08109F0D08B49F0D08F5
:1032E0004CA00D0874A10D0804A20D089CA20D08A5
:1032F0003CA50D0810A90D08ECA00D08A0A40D0810
:10330000ACA90D0838B5054B1C6823680A461D6832
:10331000034B01462046A847002038BD087800200E
:10332000202B002010B589F039FC064C064B1860A4
:103330002046FFF7ABFD2046044A0549BDE8104092
:10334000B9F0F6BE202B002008780020E4E300202E
:10335000F526010801207047FA207047014B93F8C9
:103360002E0D7047203B0020034BD3F8680C431E02
:1033700058425841704700BF204B0020034BD3F800
:10338000680C831E58425841704700BF204B0020F4
:10339000034BD3F8580C08B17BF018BF01487047B5
:1033A000204B002054470D0870B541698269474D94
:1033B00041F4E053436142F4E0538361C36904463E
:1033C00043F4E050E06195F8290C400710D541F432
:1033D0008E3142F48E326161A26195F8292C510739
:1033E00006D595F84D2CD2075CBF43F48E33E361CC
:1033F000636943F4C0436361D5F8340C03681B6808
:1034000098470238192816D8DFE800F0570D0D0D3F
:103410000D0D150D1515155715570D0D0D0D570DD6
:1034200057151515150DD4E9062342F4C042A261C3
:1034300043F4C043E361264B1E6846B11921304670
:103440004BF064F918B1636943F48073636195F8D4
:10345000EC38DB070DD5A36943F48073A36146B153
:10346000192130464BF08AF918B1E36943F48073AF
:10347000E361184B93F8A832013B012B0BD8D4E938
:10348000052343F48003A361E36942F4800243F41B
:1034900080036261E361636943F080436361A36910
:1034A00043F08043A361D5F8583C93F86D301BB9C5
:1034B000E36943F08043E36170BDA36943F40053C3
:1034C000A361E36943F40053B4E700BF204B00203D
:1034D000487A0020206B002013B54FF4F470CDE93A
:1034E000002119F0C7FA044628B1DDE900215AF09D
:1034F00085FB024B2360204602B010BDD0490D0869
:1035000008B590F884308B4208D24EF0B1FC1622F8
:103510004FF480214EF062FC002008BD223150F8AB
:103520002100FAE708B590F884308B4208D24EF0BB
:103530009FFC0F224FF480214EF050FC002008BD6C
:10354000223150F82100FAE7002070477047000050
:103550000320704710B5154CD4F8340C03681B6871
:10356000984707281CD8032834BF10231823D4F801
:10357000582C43F0400022B192F875200AB143F074
:10358000C00040F0010010BD0B280DD8DFE800F0AE
:1035900006060C060C060C060C0C0C061823E6E7B7
:1035A0001038C3B20B2BEFD91023E0E7204B0020DB
:1035B000014B93F8300D7047203B0020034B93F9EB
:1035C000FC0E003818BF0120704700BF203B0020D0
:1035D000014B93F9320D7047203B002070470000EB
:1035E0007047000038B5C5780B46352D044628BF16
:1035F0003525352200211846BCF0D8FA2A4604F1B8
:103600000C01BDE83840BCF0A9BA00001FB5184C49
:1036100094F8261C04F52E6013F090F878B194F815
:10362000261C04F52E6013F08BF840B194F8261C8C
:1036300004F52E6004B0BDE8104013F083B80023F9
:1036400001930293039314F093FE01A913F0D4FEA7
:1036500020B101A82DF068FC04B010BD20F040F9A5
:1036600090F8D032B02202FB030090ED330AF3E76A
:10367000203B002008B50D4BD3F8580CA8B13C30C6
:1036800052F00CFF034693ED000ADFED090A9A2081
:10369000B7EE001A29F09EFDDFED067A20EE270A2C
:1036A000BDEEC00A10EE103A18B208BD204B002043
:1036B000000000000000C8422DE9F04FDFF8DC8078
:1036C000354F8DB00446042508F5005617F8019BC8
:1036D000B8F9883D09F1FF3A43FA0AF3D90744D50E
:1036E000207C54F081FA8346207C55F0A3F900F148
:1036F00021039B4505D2207C0DB0BDE8F04F53F06F
:1037000037BDBAF1030F30D8DFE80AF002363B408C
:10371000D6F8A80803689B68984700F18C03D3F893
:1037200000B0D3F804A0D3F80CC018695969D3F8D5
:1037300018E0DA691B6ACDF82530CDF8292021235D
:103740006222CDE9003207900891207CCDF80CB0C0
:10375000192303AAC221CDF810A0CDF814E0CDF8AA
:1037600018C08DF8249054F0B9FA013D15F0FF050A
:10377000ACD10DB0BDE8F08FD6F8A8080368DB68BF
:10378000CAE7D6F8A80803681B69C5E7D6F8AC38BD
:1037900003F5DE73C3E700BFB84A0D08203B0020E5
:1037A00007B5019080F0B2FB28B1019903B05DF834
:1037B00004EB80F06DBB03B05DF804FB014808F03A
:1037C000F5BB00BF7C6E002037B504460D460648A9
:1037D0000192114680F094FF019A2946204603B0D9
:1037E000BDE8304058F0A6BFF051002010B588B0B9
:1037F000044656F001FD0C4BD3F8580C38B90B4A6F
:103800000621204608B0BDE8104056F0EBBB6946E3
:103810001E227BF0DFFC064A6B460621204656F04E
:10382000E1FB08B010BD00BF204B002054470D083D
:1038300032960D08034A92F8C837013382F8C83728
:1038400055F0B2BD204B002007B50846019118F095
:10385000C3FE38B10448019903F020F8002003B0FA
:103860005DF804FB0420FAE70C780020014803F01F
:103870004FBB00BF202B0020014803F0D3BA00BF8C
:10388000202B002070B58B8BCD2B06460C4615D116
:103890000D4D95F8991905F638105EF081FA68B16A
:1038A00095F8991905F638105EF0F6FA30B9DFEDA3
:1038B000070A94ED020A064802F0D0FF214630467E
:1038C000BDE8704055F0AABD205B0020000000005C
:1038D0000C78002010B5074B93F9102A40F6CD3430
:1038E00040F6CD13002A08BF1C4655F015FD2043B5
:1038F00010BD00BF205B002000B589B000230293FB
:103900000393049305930693079314F031FD02A9E2
:1039100013F072FDB0B114F02BFD13F043FD05A8B8
:103920008DED050ACDED060A8DED071A2DF0FCFA96
:10393000F1EE047A20EE270AFCEEC07ACDED017A92
:103940009DF8040009B05DF804FB000010B52DEDF2
:10395000028B84B014F00CFD0446684618F048FD54
:103960006946204613F0FEFC114B93F8290C10F029
:10397000200019D003F58053DDED017AD3F8AC387F
:10398000986893ED8C8AF8EEE78A79F0D9FC38EEE6
:10399000408A9FED080A38EE288A28EE008ABDEE9C
:1039A000C88A18EE103A18B204B0BDEC028B10BDF4
:1039B000204B00200AD7233C10B5044619F060F8CC
:1039C000204610BD10B50C4C94F9283C002B0FDBA1
:1039D000D4F8340C03685B6C984758B9D4F8340CAD
:1039E00003681B6C984700280CBF0220032010BD01
:1039F0000120FCE70420FAE7204B002008B5134B18
:103A000093F8290C10F020001ED0D3F8340C036872
:103A10005B6D984707EE900AB8EE677ADFED0C7A97
:103A200027EE277ADFED0B7AB4EEE77AF1EE10FAA3
:103A300058BFB0EE677AF2EE046AC7EE267AFCEE63
:103A4000E77A17EE903A98B208BD00BF204B0020ED
:103A50000AD7233C00FF7F4738B5F7EE000A91ED07
:103A6000050A04460D4629F09DFA28B1214605486D
:103A7000BDE8384003F080BA29462046BDE838400A
:103A800058F02CB9202B002008B5094B93F8290CCD
:103A900010F020000AD0D3F8340C03681B6D98474F
:103AA00029F06CFBC82390FBF3F0C0B208BD00BF47
:103AB000204B002000B589B00023029303930493A8
:103AC00014F056FC02A913F097FCD8B114F050FC86
:103AD00013F068FCF0EE607AF1EE400AB1EE670A8E
:103AE000B9F068FEDFED097A20EE270A29F0C8FA5E
:103AF000F6EE007A20EE270AFCEEC07ACDED017AD0
:103B00009DF8040009B05DF804FB00BFE02E65429B
:103B1000044B187820B9044B93F82A0CC0F380109A
:103B2000704700BF4C790020204B002007B5124B96
:103B300093F8290C10F020001AD003F58053D3F825
:103B4000AC0800F510702DF0EFF9DFED0C7A20EEE7
:103B5000270ADFED0B7AB4EEE70AF1EE10FA58BF50
:103B6000B0EE670AFCEEC07ACDED017A9DF8040054
:103B700003B05DF804FB00BF204B0020CDCC4C3DD2
:103B800000007F43094B93F8412162B9A3F58053AC
:103B900093F84D2C920606D193F9283C002BACBF2C
:103BA0000420032070470520704700BF205B0020E1
:103BB00008B5074B93F97C3D032B03D0BDE80840C3
:103BC00056F028BA034A022156F00CFA042008BD28
:103BD000203B0020AC470D08084BD3F8002F92077C
:103BE00001D455F06FB903F5225393ED000ADFEDD0
:103BF000047AB8EEC00A20EE270A7047203B002066
:103C00000AD7233C10B594B0044603A818F0F0FB83
:103C10001C4BD3F8340C036803A9DB6C984778B3CA
:103C2000002103A818F0AEFC50B3247C8BF0E6FD15
:103C3000059BDDED047A0893069B09930023F8EEBB
:103C4000E77A9FED117A0B930C930D930E930F93DC
:103C50001093119312934FF6F853ADF84C300023A4
:103C6000962267EE877A8DF84E303323CDE9003205
:103C7000079007AA57212046CDED0A7A54F02EF876
:103C800014B010BD204B00200AD7233C30B52DEDD9
:103C90000A8B774C0546D4F8340C036899B05B6AFC
:103CA000984700285BD004F50054D4F87838062BE8
:103CB00000F2C980DFE803F00404045788AB530026
:103CC0006C489FED6D8A0BF0CBF99FED6C0A016893
:103CD000426883680D930BA80B910C922CF026FD83
:103CE000F0EE489AB0EE40CAF0EE60BAB0EE419AFB
:103CF000B0EE48AAF0EE488AF0EE48AAB0EE48BA14
:103D000040F6F8542D7C8BF079FD00231593169323
:103D100001238C228DF85E303323CDE900320B90E5
:103D2000B1EE499AF1EE688AB1EE488A0BAA5521A4
:103D300028468DED0CCACDED0DBA8DED0E9A8DEDA8
:103D40000FBACDED10AACDED118A8DED12AACDEDF1
:103D5000139A8DED148AADF85C4053F0BFFF19B093
:103D6000BDEC0A8B30BD43480BF07AF99FED430A56
:103D70000168426883680D930BA80B910C922CF09C
:103D8000D5FC3C48F0EE60BAB0EE419AB0EE40CAC5
:103D90000BF06AF99FED390A2CF0C8FC3548B0EEFB
:103DA00040BAF0EE60AAF0EE418A0BF061F99FEDA7
:103DB000330A2CF0BBFC4FF44064B0EE40AAF0EEA6
:103DC000609AB0EE418A9DE72A489FED2B9A0BF04E
:103DD0004BF99FED2A0A2CF0A9FC2648B0EE40BA18
:103DE000F0EE60AAF0EE418A0BF042F99FED230A53
:103DF0002CF09CFCF0EE49BAB0EE40AAF0EE609ACE
:103E0000B0EE418AB0EE49CA40F607447AE7194855
:103E1000DFED198A0BF02CF99FED180A2CF086FCC7
:103E2000F0EE68AAB0EE40AAF0EE609AB0EE418AD9
:103E3000B0EE68BAB0EE689AF0EE68BAB0EE68CA52
:103E400040F63F445EE79FED0C8A0024F0EE489A6E
:103E5000B0EE48AAF0EE488AF0EE48AAB0EE48BAB2
:103E6000B0EE489AF0EE48BAB0EE48CA4AE700BF52
:103E7000204B00205C730020000000000AD7233C88
:103E80002DE9F04F2DED028B194B047CD3F8A838A7
:103E90008DB0D3F854809F6DDE6D1D6E93ED198A41
:103EA000D3F868B0D3F86CA0D3F8AC908BF0A6FC34
:103EB00000238DF82C3016222523CDE90032029004
:103EC00002AA532120468DED078ACDF820B0CDF807
:103ED00024A0CDF82890CDF80C800497059606957F
:103EE00053F0FCFE0DB0BDEC028BBDE8F08F00BFBF
:103EF000205B00202DE9F0412DED068B3E4D95F81D
:103F0000293C99068CB0044671D505F580579FED84
:103F10003B0AD7F8A808DFED3A8A3C302CF006FCC3
:103F20008DED041A21EE281AD5F8346CCDED030A74
:103F3000BDEEC11A8DED020A11EE103A1DB23368C2
:103F400094F810801B6D304620EEA89A60EE289AF7
:103F5000984707EE900AF8EEE77A304667EEA87ABF
:103F6000FDEEE77A17EE903A1CB233685B6D984726
:103F700007EE900AB8EE678ADFED227AD7F8AC3800
:103F800028EE288A986893ED8CAAB4EEE78AF1EEC1
:103F900010FA58BFB0EE678A79F0D2F9336830462C
:103FA0009B6DF0EE40AA9847BCEEC88A00233AEE1B
:103FB0006AAA089318EE103AB7222AEE28AA20EE31
:103FC000280AADF82C301A23CDE900323E2105AA8B
:103FD0004046CDED059A8DED069A8DED07AA8DED43
:103FE000090AADF82850ADF82A4053F077FE0CB01E
:103FF000BDEC068BBDE8F081204B00209F0CB34543
:104000000AD7233C00FF7F4770B58A7A4B7A43EA90
:104010000223CA7A43EA02439D2B06460C461BD173
:10402000104D95F8991905F638105DF0B9FE98B164
:1040300095F8991905F638105DF02EFF60B9D4EDAA
:10404000057A9FED090ADFED090A0948F8EEE77ADB
:1040500027EE800A02F002FC21463046BDE870409F
:1040600055F0BAB8205B00200AD7233C00000000BE
:104070000C78002008B590F8E63153B9C06B03689E
:104080001B6A9847B0F5005F28BF4FF4005080B21C
:1040900008BD0020FCE70000034BD3F8580C08B122
:1040A00090F87400704700BF204B002008B5034B08
:1040B000D3F8340C03681B68984708BD204B0020D8
:1040C000024B93F8290CC0F340107047204B00209E
:1040D00070B52C4E2DED028B0546D6F8340C91EDC3
:1040E000018A036886B05B6A0C46984750B9BDEEFA
:1040F000C88A18EE103ADB0704D4022006B0BDECE3
:10410000028B70BDD4E904012AF0FEF90028F4D036
:1041100002A818F06DF902AA2146284658F018FDA9
:104120000028EAD0184902A818F062FA03460028CD
:10413000E3D1DFED160A00900246B0EE600A1448A3
:1041400002A90AF029FDD8B1D6F8340C03685B6ADD
:104150009847044608B10020D0E70E480222042107
:1041600005F05EFC60B1DFED090A094800942346C2
:10417000B0EE600A224602A90AF00EFD0028EAD13C
:104180000420BBE7204B00209C63002000000000BF
:104190005C730020202B002010B5D1ED007AFCEEDE
:1041A000E77A044617EE903A13F0FF030FD10F4B56
:1041B000D3F8340C03681B6F984708B1002010BD7A
:1041C0000B4A2046062155F00DFF0420F7E7012B8E
:1041D00009D1064BD3F8340C03685B6F984700286D
:1041E000ECD1044AEDE70220E9E700BF204B0020B4
:1041F000D0470D08E0470D088A8BC02A82B01DD039
:10420000C12A1ED0202A1FD1D1ED007AF5EEC07A46
:10421000F1EE10FA1BDD9FED0F7AF4EEC77AF1EEA6
:1042200010FA14D8FCEEE77A0B4ACDED017A9DF82E
:104230000430A2F8D236002002B0704702B0FFF777
:1042400047BF02B0FFF7A8BF02B058F079BD032006
:10425000F2E700BF00007F43204B002010B52DED9A
:10426000028B8CB00023044603930493059314F04F
:104270007FF803A913F0C0F850B314F079F813F0E5
:1042800091F8F0EE607A8DED060ACDED070AF1EEB9
:10429000400AB1EE670A247C8DED081AB9F08AFA5B
:1042A00006A8B0EE408A2CF03FFEDFED0B7A089BAB
:1042B0000B93012228EE278A0C23CDE90032A82196
:1042C00009AA20468DED098A8DED0A0A53F006FDF4
:1042D0000CB0BDEC028B10BDE02E6542272938B52D
:1042E000044611D008D819290CD0242920D0204602
:1042F000BDE8384058F0CEBF372903D0A1F13903CB
:10430000012BF4D801200EE0FFF7B4FE0546207C17
:1043100054F090FB00F112039D42217C04D2084628
:1043200052F026FF002038BD09484CF069F8E9E753
:10433000FFF7A0FE0546207C54F07CFB00F10C0347
:104340009D4201D2207CEBE72046FFF787FFD9E7AB
:104350003065002070B52DED028B8B8BC12B90B09A
:1043600004460E4600F0018260D8542B00F0B58060
:1043700017D8162B09D8102B0AD9113B052B07D8B3
:10438000DFE803F0C60606CCCFAB202B00F0CC80D4
:104390003146204610B0BDEC028BBDE870405AF0AB
:1043A000FFBAB22B00F0E18039D8552B00F0B9806C
:1043B000732BEDD1D1ED007AF5EEC07AF1EE10FA63
:1043C000C0F2D1809FEDBB7AF4EEC77AF1EE10FA1D
:1043D00000F2C98091ED030A9FEDB78AF0EEC07A32
:1043E000F4EEC87AF1EE10FA40F1B680D6ED037A19
:1043F000D6ED010A96ED000AB048F4EEC87AD6ED83
:10440000027AFDEEE77AF1EE10FACDED037A9DF92E
:104410000C10ACBF0122002202F0A0F976E0BD2B07
:10442000B6D10221A64806F0D7FB6EE04AF211424F
:10443000934200F00C812DD8B3F5967F00F0BA803E
:1044400040F6D812934200F0F280D12BA0D1D1EDEA
:10445000017AFCEEE77ACDED037AD1ED007AFCEE3D
:10446000E77ACDED047AD1ED047A9DF81020FCEEC8
:10447000E77ACDED057A9DF814300093D1ED030A6B
:1044800091ED020A9DF80C3001468E4810F01AF8A2
:104490000446BBE04AF21342934200F025814AF2FF
:1044A0006862934200F09B804AF2124293427FF48A
:1044B0006FAF854D95F84D4C14F0010426D1D5F819
:1044C000583C93F87530002B40F0D68001221146FD
:1044D00005F6A410FDF7F8FC98E0D6ED027A9FED02
:1044E000767A96ED060A784BF0EEE77AF4EEC77A24
:1044F000DFED767AD3F8340CF1EE10FA20EE270ACD
:104500004CBF0121002111F037FB60B300247DE096
:10451000022205216B4805F083FAF6E70222062104
:10452000F8E702220921F5E7D1ED007AF5EEC07A2D
:10453000F1EE10FA17DD9FED667AF4EEC77AF1EE30
:1045400010FA10D8FCEEE77A5F4ACDED037A9DF8B9
:104550000C30A2F8D236D9E7F7EE000A28F022FD97
:1045600000287FF443AF042450E091ED010AB5EE3A
:10457000C00AF1EE10FAF6DD9FED547A524BD1ED00
:10458000007AD3F8340C20EE070A9FED527A0368C4
:10459000F4EEC77AF1EE10FA02DD5B6E9847B4E7ED
:1045A0009FED4D7AF4EEC77AF1EE10FACCBF1B6E98
:1045B000DB6DF3E743480222032105F031FA0028BE
:1045C000D1D040480121FDF7B5FD444890F898331B
:1045D000012B9BD000F566702EF084FF96E74048D3
:1045E0007FF0E8FB0028BED0D6ED017AFCEEE77A3A
:1045F000CDED037A9DF80C40012C0CD0022C10D08C
:10460000002CB0D1304B002283F8B826204610B0E1
:10461000BDEC028B70BD96ED020A31487FF00CFCB8
:1046200074E796ED030A2E487FF01AFC6EE7D1ED91
:10463000017A2C48FCEEE77ACDED037A9DF80C3038
:10464000012B0CBF0021012169F02EF85EE71E4806
:1046500090F84D3CDB073FF559AF02220521A0F54C
:10466000005005F0DDF900287FF450AF022211461A
:10467000144805F0D5F949E795F9283C002B4FF08F
:10468000020212DA0F48052105F0CAF900283FF4AA
:104690003DAF96ED000ADFED0D7AD5F8340C20EE33
:1046A000270A012111F068FAB0E70921054805F051
:1046B000B7F9ABE70000B443000000340C780020E9
:1046C0007C6E0020202B0020204B00200000C842E0
:1046D00000007F439A9939403333F33F206B002029
:1046E000CC51002010650020254D95F84D4C14F05C
:1046F00001047FF40BAFD5F8583C93F87530002BCC
:104700003FF404AF95F9283C002B06DA012208217A
:1047100005F6A410FDF78CFC78E7D1ED007A9FED4B
:10472000197AF0EEE77AF4EEC77AF1EE10FA0CD5CA
:1047300015480222112105F073F9002896D013487C
:1047400040F6C41108F07AFD60E7D5F8340C036830
:104750001B68984704283FF4D9AED5F8340C036899
:104760001B6898471428E3D1D0E607A930460322F6
:1047700057F034FC07A92046FFF70EFD88E600BF7E
:10478000204B002000000034202B0020007200206D
:1047900008B591ED007AF6EE007AB4EEE77AF1EE24
:1047A00010FA06DD044801220521FDF741FC002036
:1047B00008BD0420FCE700BFC45400202DE9F047E9
:1047C0002DED028B8A7A4B7A43EA0223CA7A43EAB6
:1047D0000243562BA2B005460C4600F0458210D885
:1047E000522B00F08480542B00F00C81452B1FD0FD
:1047F0002146284622B0BDEC028BBDE8F04759F0B7
:1048000053BE872B12D8852B00F229836D2BEFD155
:104810000821894810F088FE21460246284622B029
:10482000BDEC028BBDE8F04755F066BDA62BEEE768
:10483000824ECA79B6F9303D9A4253D1CA780B2AD2
:1048400028BF0B224FF000080C3114A8CDE91488C2
:10485000CDF85780BBF082F99DF85A20B6F92E3D6D
:104860009A423FD1BDF95490C1453BDB8AF0C6FF67
:10487000CDE9000806F5805607469FED710ABDF99F
:104880005220D6F8CC174FF47A73284658F092FA93
:104890000123CDE900739FED6A0ABDF95020D6F8D7
:1048A000D0174FF47A73284658F084FACDE900788F
:1048B0009FED640AD6F8D41743464A46284658F076
:1048C00079FACDE900789FED5E0ABDF95620D6F859
:1048D000D8174FF47A73284658F06CFA58F092FBC8
:1048E000C0F8A07122B0BDEC028BBDE8F087CD7896
:1048F000272D28BF27252722002114A8BBF056F911
:104900002A4604F10C0114A8BBF028F94E4BD3F849
:10491000340C03685B6A98470028E3D09DF8765012
:104920006F06DFD400244FF07E532E0610931394AD
:104930001294119428D510A82BF0D8FC434809F004
:104940006BFF9DED1C0A064600282BD040F28940E3
:10495000B7EE001AFFEE000A28F03CFC0C940D9410
:104960000E94EC075CBF199B0C93A8075CBF1A9BC5
:104970000D9369075CBF1B9B0E93344833460CAA0A
:1049800010A909F051FFADE7159B1093169B1193E9
:10499000179B129310A8189B13932BF0ADFC0028C3
:1049A000A0D0CBE7DFED2A0A40F28C40B7EE001A28
:1049B00028F010FCF6EE000AB0EE408A28F0F2FA79
:1049C000E8B9B6EE000A234BB4EEC08AF1EE10FA55
:1049D000D3F8B03808DD38EE400A30EE008A93EDA7
:1049E000070A28EE000AB9E730EE480AD3ED087A44
:1049F00030EE000AF0EEE77A27EEC00AAEE79FED50
:104A0000140AABE7204614A9FEF7ECFD0E4BD3F8D1
:104A1000340C03685B6A984700283FF463AF9DF845
:104A20008430012B1AD0DA1F022A17D90121074836
:104A300009F090FE56E700BF202B0020203B00200D
:104A40000000FA4400007A44204B00205C730020F0
:104A500000000000205B00200000C842BDF880502C
:104A6000AA0505F0380805F4E07705F4806605F43A
:104A7000006402D5002F3FF435AF4FF0000915F068
:104A80000705CDF82490CDF82890CDF82C9027D1AB
:104A90001FED0F6A9DED167ADDED177ADDED156AD3
:104AA00027EE067A67EEC67A66EE866A083B012B29
:104AB000CDED096A8DED0A7ACDED0B7A04D8644804
:104AC0000AAA09A9FDF7AAFC9DF88430073B022B2E
:104AD00006D8604878F030FC014609A82BF046FE65
:104AE000CDF83090CDF83490CDF83890B8F1000F73
:104AF0001DD19FED596A9DED197ADDED1A7ADDED34
:104B0000186A9DF8843027EE067A67EEC67A66EE5C
:104B1000866A083B012BCDED0C6A8DED0D7ACDED4B
:104B20000E7A04D84A480DAA0CA9FDF777FCCDF8F7
:104B30004090CDF84490CDF84890EFB99FED466A8B
:104B40009DED1C7ADDED1D7ADDED1B6A9DF884304C
:104B500027EE067A67EEC67A66EE866A083B012B78
:104B6000CDED106A8DED117ACDED127A04D838486A
:104B700011AA10A9FDF752FC7EBBDFED387A9DED3E
:104B80001E0A9DF8843020EE270ADFED337A083BB9
:104B9000012B20EE270A8CBF002301230CBBDFED85
:104BA0002F7ADDED1F0A60EEA70ADFED2B7A60EEAB
:104BB000A70ACDB9B8F1000F3AD1B4FA84F4B6FA25
:104BC00086F66409760902930194009610AB0CAA4C
:104BD00009A923480AF09AF984E69FED220A0023E6
:104BE000DCE7DFED200AE4E7B8F1000F0FD1012286
:104BF000B4FA84F4CDE901326409B6FA86F300947C
:104C00005B0910AA0CA916480AF012F96AE6002FEF
:104C10007FF40CAF0122CDE90032B4FA84F3B6FA86
:104C200086F25B09520910A90D480AF0A9F859E665
:104C3000002F3FF4FBAECDE90035B6FA86F2B4FAA8
:104C400084F35B09520909A9054809F0DDFE49E62C
:104C5000202B0020AC6300200000C842E02E6542FB
:104C60005C73002000000000204614A9FEF7BAFC87
:104C7000804BD3F8340C03685B6A984700283FF4F4
:104C800031AEBDF88040A30504F4E07702D5002FD3
:104C90003FF428AE0CAE04F00708304617F0A8FB2E
:104CA000B8F1000F25D1DDE9150129F02DFC002810
:104CB0003FF4BCAE9DF8841009AA284657F032FF95
:104CC00000283FF4B3AEDDED177A9FED6B7A099BB8
:104CD000009367EE877A10ADFDEEE77ADDE91512F5
:104CE00017EE903A284617F0A3FB95E80F0086E8E8
:104CF0000F00002514F0380A06950795089513D182
:104D00009FED5D6A9DED197ADDED1A7ADDED186A89
:104D100027EE067A67EEC67A66EE866A8DED077A2A
:104D2000CDED066ACDED087A09950A950B959FB9E8
:104D30009FED516A9DED1C7ADDED1D7ADDED1B6A5C
:104D400027EE067A67EEC67A66EE866A8DED0A7AF7
:104D5000CDED096ACDED0B7A14F4806905BFDFED66
:104D6000477A9DED1E0A9FED460A20EE270A04BFF2
:104D7000DFED417A20EE270A14F4006405BFDFED71
:104D80003F7ADDED1F0ADFED3E0A60EEA70A04BFA1
:104D9000DFED397A60EEA70AB8F1000F31D1BAF130
:104DA000000F4CD13046CDED050A8DED040A17F009
:104DB0004FFB03289DED040ADDED050A3FF436AEF6
:104DC00010A93046CDED050A8DED040A1095119518
:104DD000129517F0BBFC00283FF428AEB4FA84F417
:104DE0006409B9FA89F3DDED050A9DED040ACDF8F1
:104DF00004A000945B0906AA10A922480AF0F6F85C
:104E000070E5BAF1000F0CD10123B4FA84F4CDE9B6
:104E100001A36409B9FA89F300945B0909AA06A9F8
:104E2000F1E6002F7FF402AE0123CDE90073B9FA59
:104E300089F2B4FA84F35B09520909A9F4E6002F58
:104E40003FF4F4ADB4FA84F3B9FA89F2CDF80080F6
:104E50005B09520931460B4809F09EFE42E50A46BD
:104E6000017C094822B0BDEC028BBDE8F0474BF055
:104E7000C1BB00BF204B00200000C842E02E6542AD
:104E8000000000005C730020306500202DE9F04137
:104E90002DED028B044690B000F5685000230122EE
:104EA0006946103000934CF051F908B94D4B00930E
:104EB00004F50056DFED4C8AD6F8340C03685B69C4
:104EC000984704F54058002840F08880D8F8AC385E
:104ED000D3ED927A93ED8C8AFDEEE77A28EE288A5C
:104EE00017EE903A1DB204F52457343701A938461D
:104EF00010F0CCF918B94EF047FF3A4B0193372226
:104F0000002102A8BAF052FEA3238DF808309523A1
:104F10008DF809308AF07AFCD8F8A838CDF80B0063
:104F2000D6F8580CD3F8AC20D3F8B030CDF80F1029
:104F30003C30CDF81320CDF8173051F0AFFA0346CE
:104F4000DFED2A0A93ED000AB7EE001A9A2028F046
:104F500041F910EE103AD6F8580CCDF81B30036822
:104F60009B68984710EE103A04F56256CDF81F3052
:104F70000C3618EE103A3046CDF8233078F0E0F9D0
:104F800020EE280A384610EE103ACDF82730D8F82F
:104F90005038CDF82B30019BCDF82F3010F09CF914
:104FA00010EE103A3046CDF83330009BCDF8373054
:104FB000ADF83B5078F0D0F9BDEEC00A04F51F50B3
:104FC00010EE103A372202A91C30ADF83D304DF0FA
:104FD00075FF10B0BDEC028BBDE8F0819FED038A38
:104FE000002580E72292CA7F0AD7233C00000000F8
:104FF00070B500F540560446D6F8A8089FED170A8C
:105000008AB03C302BF092FB0AAACDED080A8DED58
:10501000091A8DED070A12E9070001AD85E80700BE
:1050200004AB9DED030A83E8070028F067F804F558
:10503000825004F50054294608308DED030A11F022
:1050400035FCD6F8AC38D6F8A828D4F8581CD4F8D3
:10505000A00911F07DFD0AB070BD00BF9F0CB345E3
:1050600070B54FF48051054610F05EFA00284FD01D
:1050700005F5405605F51F54D6F8A80803689B6847
:1050800098471C3400F18C02622120464DF0F0FB61
:10509000D6F8A8080368DB689847632100F18C0202
:1050A00020464DF0E5FBD6F8A80803681B69984731
:1050B000642100F18C0220464DF0DAFBD6F8AC28D2
:1050C0006521204602F5DE724DF0D2FB20212846F4
:1050D00010F02AFAE0B105F50053D3F8340C036858
:1050E0001B69984778B1D6F8AC28204688326721EA
:1050F0004DF0BEFBD6F8AC282046B032BDE870407B
:1051000068214DF0B5BB28460AF0C2FE0028EAD15E
:1051100070BD000008B513F02BF9BDE8084013F08E
:105120000DB900007FB50E464FF6FF7104461546D7
:1051300010F0FAF9E8B1102200216846BAF036FD05
:10514000A3238DF8003095238DF8013003238DF8CB
:1051500002308AF05BFBCDF8030004F51F50CDF858
:105160000710102269461C308DF80B6003954DF036
:1051700025FF04B070BD00007FB50E464FF6FF71ED
:105180000446154610F0D0F9E8B110220021684617
:10519000BAF00CFDA3238DF8003095238DF8013073
:1051A00004238DF802308AF031FBCDF8030004F5BA
:1051B0001F50CDF80710102269461C308DF80B6087
:1051C00003954DF0FBFE04B070BD000030B52DED31
:1051D000048B87B004460D46182200216846B0EEC5
:1051E000409AF0EE608AB0EE418ABAF0DFFCA32369
:1051F0008DF8003095238DF8013006238DF80230AC
:105200008AF004FBCDF8030004F51F50CDF8071019
:10521000182269461C308DF80B508DED039ACDEDA8
:10522000048A8DED058A4DF049FE07B0BDEC048B74
:1052300030BD000010B54FF48011044610F074F931
:1052400030B104F582500830BDE8104011F020BCA8
:1052500010BD00002DE9F04F2DED028B8DB0804682
:105260002F220021684611EE10BA11EE90AA12EE1C
:10527000109A12EE907A13EE106A13EE905A14EE12
:10528000104AF0EE408AB0EE608ABAF08FFCA32399
:105290008DF8003095238DF8013009238DF8023008
:1052A0008AF0B4FA18EE903ACDF80300CDF80B303E
:1052B00008F51F5018EE103ACDF807102F22694656
:1052C0001C30CDF80F30CDF813B0CDF817A0CDF8C5
:1052D0001B90CDF81F70CDF82360CDF82750CDF886
:1052E0002B404DF0EBFD0DB0BDEC028BBDE8F08F17
:1052F00030B52DED088B8BB004460D4628220021D9
:105300006846B0EE40BAF0EE60AAB0EE41AAF0EE08
:10531000619AB0EE429AF0EE628AB0EE438ABAF039
:1053200045FCA3238DF8003095238DF801300A2326
:105330008DF802308AF06AFACDF8030004F51F50A8
:10534000CDF80710282269461C308DF80B508DEDE2
:1053500003BACDED04AA8DED05AACDED069A8DED2B
:10536000079ACDED088A8DED098A4DF0A7FD0BB0A7
:10537000BDEC088B30BD00002DE9F0438FB0144622
:10538000054689463122002101A8DDE916769846B6
:10539000BAF00CFCA3238DF8043095238DF805306A
:1053A00008238DF806308AF031FA23680493636885
:1053B0000593A36806933B68CDF81D307B68CDF854
:1053C0002130BB68CDF825303368CDF80700CDF823
:1053D000293005F51F507368CDF80B10CDF82D302E
:1053E0003122B3688DF80F9001A91C308DF81C8014
:1053F000CDF831304DF062FD0FB0BDE8F083000014
:1054000070B52DED068B8CB0144605460E462C2249
:10541000002101A8B0EE409AF0EE608AB0EE418A19
:10542000B0EE61AAF0EE429ABAF0C0FBA3238DF869
:10543000043095238DF805300B238DF806308AF063
:10544000E5F9DFED1A7A94ED007ACDF8070027EE42
:10545000277A29EE279A8DED077A94ED017ACDF817
:105460000B1027EE277A68EEA78A8DED087A94ED67
:10547000027A8DF80F6028EE278A05F51F5067EE37
:10548000277A2C2201A91C308DED049ACDED058AD6
:105490008DED068ACDED097A8DED0AAACDED0B9A38
:1054A0004DF00CFD0CB0BDEC068B70BDE02E6542DE
:1054B00030B5154B044689B004F51F55D3F8580C88
:1054C00069461C351E2279F085FE6A460F4928463A
:1054D0004DF078FE04F50053D3F8340C03681B68D4
:1054E000984704F58053014693F8EC2C28464DF07C
:1054F0008DFE04F58250083013F09AF904F584709B
:105500001CF00EFF09B030BD204B002032960D0874
:1055100000F51F50024999221C304EF03BB900BFE4
:10552000B86D0D0870B5044608306BF07FFB0023A2
:10553000334AE36623676367C4F89430314BC4F899
:105540008C20C4F898304FF080422F4BC4F89C3028
:10555000C4F8902004F1A0007CF0ACF804F5B6701B
:1055600059F002FF294E2A4BC4F86C314FF4C47530
:1055700060195AF065F866512C35B5F5896FF7D189
:1055800004F589605BF03AFC002104F658007BF0DA
:105590008FFC04F60C107EF0FDFB04F513607EF02A
:1055A000D3FF1C4BC4F8B83903F2EC4203F5D663C1
:1055B000C4F8C429C4F8D0399FED171ADFED170AD3
:1055C0009FED170A04F6D41071F034FF9FED121A04
:1055D0009FED140AF0EE410A04F51E6071F02AFFF7
:1055E0009FED0D1A9FED0F0AF0EE410A04F6EC1044
:1055F00071F020FF20460C4947F0D6FE204670BDD2
:105600000000C8410AD7233C0000E040C8930D08C1
:10561000DC930D0894700020000000009A99993ED8
:105620000000B44300804A4398850D08F0B52DED85
:10563000028B7E4C7E49ADF55B7D074690224AA8E1
:10564000BAF08CFA0FCC16AD0FC50FCC0FC594E88D
:105650000F0004F5987685E80F0004F110014FF46F
:10566000907292A8BAF07AFA0FCE06AD0FC596E8FE
:105670000F0004F5A87485E80F000FCC22AD0FC50C
:105680000FCC0FC50FCC0FC594E80F0085E80F00B5
:1056900007F5805393F97E2D531EDBB2012B40F2A8
:1056A000C1809FED648A9FED640A032A18BFB0EEA3
:1056B000408A00244AAB18190021B0EE480A103481
:1056C00047F044FB902CF5D19FED5C8A002416AB8B
:1056D00018190021B0EE480A103447F037FB302C7F
:1056E000F5D1002492AB18190021B7EE000A10344E
:1056F00047F02CFBB4F5907FF4D19FED510A0021C7
:1057000006A847F023FB00210AA89FED4D0A47F0A9
:105710001DFB4C4B0FCB02AC84E80F0001A92046C7
:1057200047F0C8FA90B19DF90430DFED476AE068B0
:1057300007EE103AB8EEC77AF0EE007AE7EE267A76
:10574000B7EE000A80EE270A48F04CFB002422AB9B
:10575000181900211034B7EE000A47F0F7FA402C70
:10576000F5D13A4990226EA8BAF0F8F96EAC00254E
:10577000204600220121013547F07AFB092D04F172
:105780001004F5D197F9B46906BB314D0FCD32AC99
:105790000FC40FCD0FC40FCD0FC495E80F0084E8E0
:1057A0000F0032AD284600220121013647F060FB90
:1057B000042E05F11005F5D19FED260A264848F084
:1057C00011FB2648B7EE000A48F00CFB244C9FED75
:1057D000250A0FCC0EAD0FC594E80F0085E80F0029
:1057E00000210EA847F0B2FA9FED1E0A00212846BC
:1057F00047F0ACFA04F11001602232A8BAF0AEF919
:10580000002432AB18190021B7EE000A103447F01B
:105810009DFA602CF5D15BF023F80DF55B7DBDECB6
:10582000028BF0BD9FED038A43E700BF90330D0864
:1058300000330D086666663F5C8FA23F53046939EA
:105840006F12833A40350D08CDCCCC3D50350D0854
:10585000E0350D0800000000C8830D08D7830D084F
:1058600020360D080000344273B5002205460DF1C4
:1058700007011E4846F048FE044690B347F052F830
:1058800078BB9DF80730032B2BD105F5805595F992
:10589000663D022B27D11648B7EE000A47F0E6FF17
:1058A000112695F9553D022B06D11248B7EE000A94
:1058B00046F0020647F0DAFF23689FED0F7A266074
:1058C0009B1B07EE903AF8EEE77A2046F0EEE77A77
:1058D000F4EEC77AF1EE10FA4CBF0121002146F038
:1058E00027FF02B070BD1026DBE700BFFC390D08B2
:1058F000E8830D08F6830D0800000034B1F90010AC
:10590000B0F900309FED097A01805B1A07EE903AFA
:10591000F8EEE77AF0EEE77AF4EEC77AF1EE10FAF5
:105920004CBF0121002146F003BF00BF000000343E
:105930002DE9F04790B00DF106011D205BF058F9FC
:10594000002800F0A0809DF80630654A0133DBB2E4
:1059500011210BA88DF8063086F0BAFE00220DF159
:1059600007010BA846F0D0FD9DF806305D4A1121D5
:1059700006460BA886F0ACFE00220DF107010BA82D
:1059800046F0C2FD9DF80630574A112107460BA884
:1059900086F09EFE00220DF107010BA846F0B4FD33
:1059A0009DF80630514A03F03F03112180460BA8B1
:1059B00086F08EFE00220DF107010BA846F0A4FD33
:1059C0000446002E5FD0002F5DD0B8F1000F5AD0F2
:1059D000002858D0304646F0A5FF002853D138465D
:1059E00046F0A0FF00284ED1404646F09BFF00281D
:1059F00049D1204646F096FF002844D13C4D95E819
:105A00000F000DF10C0C10358CE80F0095E80F001D
:105A10000DF11C0989E80F0002A9604647F04AF918
:105A2000A0B3BDF8085002A9484647F043F9002842
:105A300050D0BDF808305DBB2BB340F2E2459D422B
:105A40000FFA85FA0FFA83F928D80DF10A013846C2
:105A5000ADF80A90FFF752FF0DF10A013046ADF89C
:105A60000AA0FFF74BFF0DF10A014046ADF80AA06E
:105A7000FFF744FFB4F900302BB10023238001214C
:105A8000204646F055FE10B0BDE8F0870025CAE775
:105A900040F2D662002B08BF1346D0E70DF10A0191
:105AA0003846ADF80AA0FFF729FF0DF10A0130468C
:105AB000ADF80A90FFF722FF0DF10A014046ADF85C
:105AC0000A90FFF71BFFB4F90030012BDBD0012156
:105AD0002180D5E7002DD6D040F2D663AFE700BFD6
